{
  "_format": "hh-sol-artifact-1",
  "contractName": "PhotoStorage",
  "sourceName": "contracts/PhotoStorage.sol",
  "abi": [
    {
      "inputs": [
        {
          "internalType": "uint256",
          "name": "_index",
          "type": "uint256"
        }
      ],
      "name": "getImage",
      "outputs": [
        {
          "internalType": "string",
          "name": "",
          "type": "string"
        },
        {
          "internalType": "string",
          "name": "",
          "type": "string"
        },
        {
          "internalType": "string",
          "name": "",
          "type": "string"
        }
      ],
      "stateMutability": "view",
      "type": "function"
    },
    {
      "inputs": [],
      "name": "getImageCount",
      "outputs": [
        {
          "internalType": "uint256",
          "name": "",
          "type": "uint256"
        }
      ],
      "stateMutability": "view",
      "type": "function"
    },
    {
      "inputs": [
        {
          "internalType": "string",
          "name": "_hash",
          "type": "string"
        },
        {
          "internalType": "string",
          "name": "_latitude",
          "type": "string"
        },
        {
          "internalType": "string",
          "name": "_longitude",
          "type": "string"
        }
      ],
      "name": "uploadImage",
      "outputs": [],
      "stateMutability": "nonpayable",
      "type": "function"
    },
    {
      "inputs": [
        {
          "internalType": "address",
          "name": "",
          "type": "address"
        },
        {
          "internalType": "uint256",
          "name": "",
          "type": "uint256"
        }
      ],
      "name": "userImages",
      "outputs": [
        {
          "internalType": "string",
          "name": "hash",
          "type": "string"
        },
        {
          "internalType": "string",
          "name": "latitude",
          "type": "string"
        },
        {
          "internalType": "string",
          "name": "longitude",
          "type": "string"
        }
      ],
      "stateMutability": "view",
      "type": "function"
    }
  ],
  "bytecode": "0x608060405234801561001057600080fd5b50610d67806100206000396000f3fe608060405234801561001057600080fd5b506004361061004c5760003560e01c80632607aafa146100515780633c37bd4f14610083578063cec23a47146100b5578063f97c44a9146100d1575b600080fd5b61006b60048036038101906100669190610677565b6100ef565b60405161007a93929190610734565b60405180910390f35b61009d600480360381019061009891906107de565b610334565b6040516100ac93929190610734565b60405180910390f35b6100cf60048036038101906100ca9190610953565b610513565b005b6100d96105e4565b6040516100e69190610a09565b60405180910390f35b606080606060008060003373ffffffffffffffffffffffffffffffffffffffff1673ffffffffffffffffffffffffffffffffffffffff168152602001908152602001600020858154811061014657610145610a24565b5b906000526020600020906003020160405180606001604052908160008201805461016f90610a82565b80601f016020809104026020016040519081016040528092919081815260200182805461019b90610a82565b80156101e85780601f106101bd576101008083540402835291602001916101e8565b820191906000526020600020905b8154815290600101906020018083116101cb57829003601f168201915b5050505050815260200160018201805461020190610a82565b80601f016020809104026020016040519081016040528092919081815260200182805461022d90610a82565b801561027a5780601f1061024f5761010080835404028352916020019161027a565b820191906000526020600020905b81548152906001019060200180831161025d57829003601f168201915b5050505050815260200160028201805461029390610a82565b80601f01602080910402602001604051908101604052809291908181526020018280546102bf90610a82565b801561030c5780601f106102e15761010080835404028352916020019161030c565b820191906000526020600020905b8154815290600101906020018083116102ef57829003601f168201915b5050505050815250509050806000015181602001518260400151935093509350509193909250565b6000602052816000526040600020818154811061035057600080fd5b90600052602060002090600302016000915091505080600001805461037490610a82565b80601f01602080910402602001604051908101604052809291908181526020018280546103a090610a82565b80156103ed5780601f106103c2576101008083540402835291602001916103ed565b820191906000526020600020905b8154815290600101906020018083116103d057829003601f168201915b50505050509080600101805461040290610a82565b80601f016020809104026020016040519081016040528092919081815260200182805461042e90610a82565b801561047b5780601f106104505761010080835404028352916020019161047b565b820191906000526020600020905b81548152906001019060200180831161045e57829003601f168201915b50505050509080600201805461049090610a82565b80601f01602080910402602001604051908101604052809291908181526020018280546104bc90610a82565b80156105095780601f106104de57610100808354040283529160200191610509565b820191906000526020600020905b8154815290600101906020018083116104ec57829003601f168201915b5050505050905083565b600060405180606001604052808581526020018481526020018381525090506000803373ffffffffffffffffffffffffffffffffffffffff1673ffffffffffffffffffffffffffffffffffffffff16815260200190815260200160002081908060018154018082558091505060019003906000526020600020906003020160009091909190915060008201518160000190816105af9190610c5f565b5060208201518160010190816105c59190610c5f565b5060408201518160020190816105db9190610c5f565b50505050505050565b60008060003373ffffffffffffffffffffffffffffffffffffffff1673ffffffffffffffffffffffffffffffffffffffff16815260200190815260200160002080549050905090565b6000604051905090565b600080fd5b600080fd5b6000819050919050565b61065481610641565b811461065f57600080fd5b50565b6000813590506106718161064b565b92915050565b60006020828403121561068d5761068c610637565b5b600061069b84828501610662565b91505092915050565b600081519050919050565b600082825260208201905092915050565b60005b838110156106de5780820151818401526020810190506106c3565b60008484015250505050565b6000601f19601f8301169050919050565b6000610706826106a4565b61071081856106af565b93506107208185602086016106c0565b610729816106ea565b840191505092915050565b6000606082019050818103600083015261074e81866106fb565b9050818103602083015261076281856106fb565b9050818103604083015261077681846106fb565b9050949350505050565b600073ffffffffffffffffffffffffffffffffffffffff82169050919050565b60006107ab82610780565b9050919050565b6107bb816107a0565b81146107c657600080fd5b50565b6000813590506107d8816107b2565b92915050565b600080604083850312156107f5576107f4610637565b5b6000610803858286016107c9565b925050602061081485828601610662565b9150509250929050565b600080fd5b600080fd5b7f4e487b7100000000000000000000000000000000000000000000000000000000600052604160045260246000fd5b610860826106ea565b810181811067ffffffffffffffff8211171561087f5761087e610828565b5b80604052505050565b600061089261062d565b905061089e8282610857565b919050565b600067ffffffffffffffff8211156108be576108bd610828565b5b6108c7826106ea565b9050602081019050919050565b82818337600083830152505050565b60006108f66108f1846108a3565b610888565b90508281526020810184848401111561091257610911610823565b5b61091d8482856108d4565b509392505050565b600082601f83011261093a5761093961081e565b5b813561094a8482602086016108e3565b91505092915050565b60008060006060848603121561096c5761096b610637565b5b600084013567ffffffffffffffff81111561098a5761098961063c565b5b61099686828701610925565b935050602084013567ffffffffffffffff8111156109b7576109b661063c565b5b6109c386828701610925565b925050604084013567ffffffffffffffff8111156109e4576109e361063c565b5b6109f086828701610925565b9150509250925092565b610a0381610641565b82525050565b6000602082019050610a1e60008301846109fa565b92915050565b7f4e487b7100000000000000000000000000000000000000000000000000000000600052603260045260246000fd5b7f4e487b7100000000000000000000000000000000000000000000000000000000600052602260045260246000fd5b60006002820490506001821680610a9a57607f821691505b602082108103610aad57610aac610a53565b5b50919050565b60008190508160005260206000209050919050565b60006020601f8301049050919050565b600082821b905092915050565b600060088302610b157fffffffffffffffffffffffffffffffffffffffffffffffffffffffffffffffff82610ad8565b610b1f8683610ad8565b95508019841693508086168417925050509392505050565b6000819050919050565b6000610b5c610b57610b5284610641565b610b37565b610641565b9050919050565b6000819050919050565b610b7683610b41565b610b8a610b8282610b63565b848454610ae5565b825550505050565b600090565b610b9f610b92565b610baa818484610b6d565b505050565b5b81811015610bce57610bc3600082610b97565b600181019050610bb0565b5050565b601f821115610c1357610be481610ab3565b610bed84610ac8565b81016020851015610bfc578190505b610c10610c0885610ac8565b830182610baf565b50505b505050565b600082821c905092915050565b6000610c3660001984600802610c18565b1980831691505092915050565b6000610c4f8383610c25565b9150826002028217905092915050565b610c68826106a4565b67ffffffffffffffff811115610c8157610c80610828565b5b610c8b8254610a82565b610c96828285610bd2565b600060209050601f831160018114610cc95760008415610cb7578287015190505b610cc18582610c43565b865550610d29565b601f198416610cd786610ab3565b60005b82811015610cff57848901518255600182019150602085019450602081019050610cda565b86831015610d1c5784890151610d18601f891682610c25565b8355505b6001600288020188555050505b50505050505056fea2646970667358221220820f1ccd1da5951764598146794186e23568f570b2a68979bcbdf647377d6f3864736f6c63430008180033",
  "linkReferences": {},
  "deployedLinkReferences": {}
}